{
  "_format": "hh-sol-artifact-1",
  "contractName": "SingleSwapToken",
  "sourceName": "contracts/SingleSwapToken.sol",
  "abi": [
    {
      "inputs": [],
      "name": "poolFee",
      "outputs": [
        {
          "internalType": "uint24",
          "name": "",
          "type": "uint24"
        }
      ],
      "stateMutability": "view",
      "type": "function"
    },
    {
      "inputs": [
        {
          "internalType": "uint24",
          "name": "_fee",
          "type": "uint24"
        }
      ],
      "name": "setPoolFee",
      "outputs": [],
      "stateMutability": "nonpayable",
      "type": "function"
    },
    {
      "inputs": [
        {
          "internalType": "address",
          "name": "tokenX",
          "type": "address"
        },
        {
          "internalType": "address",
          "name": "tokenY",
          "type": "address"
        },
        {
          "internalType": "uint256",
          "name": "amountIn",
          "type": "uint256"
        }
      ],
      "name": "swapExactInputSingle",
      "outputs": [
        {
          "internalType": "uint256",
          "name": "amountOut",
          "type": "uint256"
        }
      ],
      "stateMutability": "nonpayable",
      "type": "function"
    },
    {
      "inputs": [],
      "name": "swapRouter",
      "outputs": [
        {
          "internalType": "contract ISwapRouter",
          "name": "",
          "type": "address"
        }
      ],
      "stateMutability": "view",
      "type": "function"
    }
  ],
  "bytecode": "0x60a060405273e592427a0aece92de3edee1f18e0157c0586156473ffffffffffffffffffffffffffffffffffffffff1660809073ffffffffffffffffffffffffffffffffffffffff16815250610bb86000806101000a81548162ffffff021916908362ffffff16021790555034801561007757600080fd5b50608051610b426100a16000396000818161010f0152818161014501526102180152610b426000f3fe608060405234801561001057600080fd5b506004361061004c5760003560e01c8063089fe6aa1461005157806373dd250c1461006f578063c31c9c071461008b578063ceb92012146100a9575b600080fd5b6100596100d9565b6040516100669190610587565b60405180910390f35b610089600480360381019061008491906105d3565b6100ec565b005b61009361010d565b6040516100a0919061067f565b60405180910390f35b6100c360048036038101906100be919061070e565b610131565b6040516100d09190610770565b60405180910390f35b60008054906101000a900462ffffff1681565b806000806101000a81548162ffffff021916908362ffffff16021790555050565b7f000000000000000000000000000000000000000000000000000000000000000081565b600061013f843330856102bc565b61016a847f000000000000000000000000000000000000000000000000000000000000000084610414565b60006040518061010001604052808673ffffffffffffffffffffffffffffffffffffffff1681526020018573ffffffffffffffffffffffffffffffffffffffff16815260200160008054906101000a900462ffffff1662ffffff1681526020013373ffffffffffffffffffffffffffffffffffffffff16815260200142815260200184815260200160008152602001600073ffffffffffffffffffffffffffffffffffffffff1681525090507f000000000000000000000000000000000000000000000000000000000000000073ffffffffffffffffffffffffffffffffffffffff1663414bf389826040518263ffffffff1660e01b815260040161026f9190610869565b6020604051808303816000875af115801561028e573d6000803e3d6000fd5b505050506040513d601f19601f820116820180604052508101906102b2919061089a565b9150509392505050565b6000808573ffffffffffffffffffffffffffffffffffffffff166323b872dd60e01b8686866040516024016102f3939291906108d6565b604051602081830303815290604052907bffffffffffffffffffffffffffffffffffffffffffffffffffffffff19166020820180517bffffffffffffffffffffffffffffffffffffffffffffffffffffffff838183161783525050505060405161035d919061097e565b6000604051808303816000865af19150503d806000811461039a576040519150601f19603f3d011682016040523d82523d6000602084013e61039f565b606091505b50915091508180156103cd57506000815114806103cc5750808060200190518101906103cb91906109cd565b5b5b61040c576040517f08c379a000000000000000000000000000000000000000000000000000000000815260040161040390610a57565b60405180910390fd5b505050505050565b6000808473ffffffffffffffffffffffffffffffffffffffff1663095ea7b360e01b8585604051602401610449929190610a77565b604051602081830303815290604052907bffffffffffffffffffffffffffffffffffffffffffffffffffffffff19166020820180517bffffffffffffffffffffffffffffffffffffffffffffffffffffffff83818316178352505050506040516104b3919061097e565b6000604051808303816000865af19150503d80600081146104f0576040519150601f19603f3d011682016040523d82523d6000602084013e6104f5565b606091505b5091509150818015610523575060008151148061052257508080602001905181019061052191906109cd565b5b5b610562576040517f08c379a000000000000000000000000000000000000000000000000000000000815260040161055990610aec565b60405180910390fd5b5050505050565b600062ffffff82169050919050565b61058181610569565b82525050565b600060208201905061059c6000830184610578565b92915050565b600080fd5b6105b081610569565b81146105bb57600080fd5b50565b6000813590506105cd816105a7565b92915050565b6000602082840312156105e9576105e86105a2565b5b60006105f7848285016105be565b91505092915050565b600073ffffffffffffffffffffffffffffffffffffffff82169050919050565b6000819050919050565b600061064561064061063b84610600565b610620565b610600565b9050919050565b60006106578261062a565b9050919050565b60006106698261064c565b9050919050565b6106798161065e565b82525050565b60006020820190506106946000830184610670565b92915050565b60006106a582610600565b9050919050565b6106b58161069a565b81146106c057600080fd5b50565b6000813590506106d2816106ac565b92915050565b6000819050919050565b6106eb816106d8565b81146106f657600080fd5b50565b600081359050610708816106e2565b92915050565b600080600060608486031215610727576107266105a2565b5b6000610735868287016106c3565b9350506020610746868287016106c3565b9250506040610757868287016106f9565b9150509250925092565b61076a816106d8565b82525050565b60006020820190506107856000830184610761565b92915050565b6107948161069a565b82525050565b6107a381610569565b82525050565b6107b2816106d8565b82525050565b6107c181610600565b82525050565b610100820160008201516107de600085018261078b565b5060208201516107f1602085018261078b565b506040820151610804604085018261079a565b506060820151610817606085018261078b565b50608082015161082a60808501826107a9565b5060a082015161083d60a08501826107a9565b5060c082015161085060c08501826107a9565b5060e082015161086360e08501826107b8565b50505050565b60006101008201905061087f60008301846107c7565b92915050565b600081519050610894816106e2565b92915050565b6000602082840312156108b0576108af6105a2565b5b60006108be84828501610885565b91505092915050565b6108d08161069a565b82525050565b60006060820190506108eb60008301866108c7565b6108f860208301856108c7565b6109056040830184610761565b949350505050565b600081519050919050565b600081905092915050565b60005b83811015610941578082015181840152602081019050610926565b60008484015250505050565b60006109588261090d565b6109628185610918565b9350610972818560208601610923565b80840191505092915050565b600061098a828461094d565b915081905092915050565b60008115159050919050565b6109aa81610995565b81146109b557600080fd5b50565b6000815190506109c7816109a1565b92915050565b6000602082840312156109e3576109e26105a2565b5b60006109f1848285016109b8565b91505092915050565b600082825260208201905092915050565b7f5354460000000000000000000000000000000000000000000000000000000000600082015250565b6000610a416003836109fa565b9150610a4c82610a0b565b602082019050919050565b60006020820190508181036000830152610a7081610a34565b9050919050565b6000604082019050610a8c60008301856108c7565b610a996020830184610761565b9392505050565b7f5341000000000000000000000000000000000000000000000000000000000000600082015250565b6000610ad66002836109fa565b9150610ae182610aa0565b602082019050919050565b60006020820190508181036000830152610b0581610ac9565b905091905056fea264697066735822122097e3c265fee62259ce683163ae2f2285a41aaf4bdf1d2d6de197ab39abe17fa764736f6c63430008110033",
  "linkReferences": {},
  "deployedLinkReferences": {}
}